:020000040800F2
:100000000028002079030008C9030008C90300087C
:10001000C9030008C9030008C90300080000000064
:10002000000000000000000000000000C9030008FC
:10003000C903000800000000C9030008C903000844
:10004000C9030008C9030008C9030008C903000860
:10005000C9030008C9030008ED06000811070008DD
:1000600035070008590700087D070008C903000884
:10007000C9030008C9030008C9030008C903000830
:10008000C9030008C9030008C9030008C903000820
:10009000C9030008C9030008C9030008A107000834
:1000A000C9030008C9030008C9030008C903000800
:1000B000C9030008C9030008C9030008190900089A
:1000C0000D090008F10A0008E50A0008FD0A000809
:1000D000590B0008B50B0008C90B0008DD0B000820
:1000E00049080008C903000800000000C90300080F
:1000F000C9030008C9030008C9030008C9030008B0
:10010000C9030008C9030008C9030008C90300089F
:10011000C9030008C9030008C9030008C90300088F
:10012000C9030008C9030008C9030008C90300087F
:1001300010B5054C237833B9044B13B10448AFF321
:1001400000800123237010BD00000020000000008B
:10015000380C000808B5034B1BB103490348AFF343
:10016000008008BD0000000004000020380C0008DA
:1001700080B582B000AF0023FB7100F061F8034648
:10018000FB71FB79002B03D0002000F065F802E042
:10019000012000F061F800BF0837BD4680BD80B582
:1001A00082B000AF0023FB71082000F021F8034665
:1001B000FB71FB79184600F06FF800BF0837BD46A9
:1001C00080BD80B582B000AF0346FB71FB79194654
:1001D000802000F01FF8FB79012B02D0FB79002B67
:1001E00001D1002300E0012318460837BD4680BD39
:1001F00080B582B000AF0346FB71FB799BB2194614
:10020000034800F045FA034618460837BD4680BD4E
:100210000008014080B582B000AF03460A46FB717A
:100220001346BB71FB799BB2BA791946034800F0BB
:1002300046FA00BF0837BD4680BD00BF0008014038
:1002400080B400AF034B1B681B781846BD4680BCCA
:10025000704700BF500C000880B584B000AF034663
:10026000FB710B4B1B78FB730A4B1B68002B06D0F2
:10027000084B1B68FA79104698470346FB73FB79D5
:100280001846FFF79EFFFB7B18461037BD4680BD22
:100290001D0000202000002080B483B000AF034682
:1002A000FB71044B1B68FA791A7000BF0C37BD460E
:1002B00080BC7047540C000880B485B000AF7860F3
:1002C0007B68074AA2FB03235B08FB60FB68013BDA
:1002D000FDD1FB6000BF1437BD4680BC704700BF36
:1002E000ABAAAAAA80B582B000AF0F4B9B690E4A99
:1002F00043F0040393610823BB800123BB713B1DC2
:1003000019460A4800F01AF98023BB800423BB7108
:100310000123FB713B1D1946044800F00FF900BF93
:100320000837BD4680BD00BF0010024000080140F4
:1003300080B582B000AF0023FB71FB790A2B05D199
:10034000FFF72DFFFB790133FB710AE0FB790C2BE2
:1003500004D1FFF70DFF0023FB7102E0FB790133AD
:10036000FB710A20FFF7A8FFE7E780B500AFFFF7B2
:10037000B9FFFFF7DDFFFEE70D488546AFF30080CC
:100380000C480D490D4A002302E0D458C4500433F0
:10039000C4188C42F9D30A4A0A4C002301E01360C6
:1003A0000432A242FBD300F023FCFFF7DEFFFEE79E
:1003B000002800200000002000000020600C000841
:1003C00000000020B4000020FEE7000080B483B0ED
:1003D00000AF0346FB80FB88B3F5004F00F0A5801B
:1003E000B3F5004F00F3A380B3F5804F00F09B807E
:1003F000B3F5804F00F39B80B3F5005F00F0918070
:10040000B3F5005F00F39380B3F5805F00F0878061
:10041000B3F5805F00F38B80B3F5006F7DD0B3F54B
:10042000006F00F38480B3F5806F74D0B3F5806FF4
:100430007DDCB3F5007F6CD0B3F5007F77DCB3F5DE
:10044000807F64D0B3F5807F71DC802B5DD0802B02
:100450006DDC202B48DC002B69DD013B1F2B66D8AF
:1004600001A252F823F000BFEF040008F3040008D3
:100470002F050008F70400082F0500082F050008C5
:100480002F050008FB0400082F0500082F050008B1
:100490002F0500082F0500082F0500082F0500086C
:1004A0002F050008FF0400082F0500082F0500088D
:1004B0002F0500082F0500082F0500082F0500084C
:1004C0002F0500082F0500082F0500082F0500083C
:1004D0002F0500082F0500082F0500082F0500082C
:1004E0002F05000803050008402B0CD01FE0002357
:1004F0001EE004231CE008231AE00C2318E010235C
:1005000016E0142314E0182312E01C2310E000234B
:100510000EE004230CE008230AE00C2308E010237B
:1005200006E0142304E0182302E01C2300E000236B
:1005300018460C37BD4680BC704700BF90B585B0EB
:1005400000AF786039600023FB600023FB723B68DA
:100550001B88FF2B01D87B6801E07B680433FB60BC
:100560003B681B881846FFF731FF03461A460F23E6
:100570009340DA43FB681B681A40FB681A603B68CB
:100580009B78042B0BD03B689B78052B07D03B68EE
:100590009B78072B03D03B689B78062B1CD13B68CC
:1005A0009B78043B9B005AB23B68DB785BB21343F9
:1005B0005BB2DBB203F00F03FB72FC7A3B681B8873
:1005C0001846FFF703FF034604FA03F2FB681B68B3
:1005D0001A43FB681A6057E03B689B78002B03D0F6
:1005E0003B689B78012B15D13B689B789B00DBB265
:1005F00003F00F03FB72FC7A3B681B881846FFF779
:10060000E5FE034604FA03F2FB681B681A43FB6825
:100610001A6039E03B689B78082B10D10423FB72E9
:10062000FC7A3B681B881846FFF7D0FE034604FAA5
:1006300003F2FB681B681A43FB681A6024E0082376
:10064000FB72FC7A3B681B881846FFF7BFFE034627
:1006500004FA03F2FB681B681A43FB681A603B68E4
:100660009B78022B07D17B68DB683A6812881A43B3
:100670007B68DA6008E07B68DB683A681288D243FE
:100680001A407B68DA60FFE700BF1437BD4690BDB3
:1006900080B485B000AF78600B467B807B689A6839
:1006A0007B881340002B02D00123FB7301E0002361
:1006B000FB73FB7B18461437BD4680BC704780B483
:1006C00083B000AF78600B467B8013467B707B78ED
:1006D000002B03D07A887B681A6102E07A887B68F5
:1006E0005A6100BF0C37BD4680BC704780B500AF73
:1006F000054B5B69044A43F001035361034B1B68DC
:10070000984700BF80BD00BF0004014024000020C6
:1007100080B500AF054B5B69044A43F002035361A7
:10072000034B5B68984700BF80BD00BF00040140D9
:100730002400002080B500AF054B5B69044A43F0FC
:1007400004035361034B9B68984700BF80BD00BF03
:10075000000401402400002080B500AF054B5B6918
:10076000044A43F008035361034BDB68984700BF1A
:1007700080BD00BF000401402400002080B500AF10
:10078000054B5B69044A43F010035361034B1B693B
:10079000984700BF80BD00BF000401402400002036
:1007A00080B500AF264B5B6903F02003002B08D017
:1007B000234B5B69224A43F020035361214B5B6961
:1007C00098471F4B5B6903F04003002B08D01C4B7C
:1007D0005B691B4A43F0400353611A4B9B6998477E
:1007E000174B5B6903F08003002B08D0144B5B6947
:1007F000134A43F080035361124BDB699847104B57
:100800005B6903F48073002B08D00D4B5B690C4AC5
:1008100043F4807353610B4B1B6A9847084B5B6929
:1008200003F40073002B08D0054B5B69044A43F4C2
:1008300000735361034B5B6A984700BF80BD00BFE4
:10084000000401402400002080B500AF2D4B5B69FF
:1008500003F48063002B08D02A4B5B69294A43F4D8
:1008600080635361284B9B6A9847264B5B6903F46E
:100870000063002B08D0234B5B69224A43F40063DA
:100880005361214BDB6A98471E4B5B6903F480532D
:10089000002B08D01B4B5B691A4A43F48053536109
:1008A000194B1B6B9847174B5B6903F40053002BE4
:1008B00008D0144B5B69134A43F400535361124B45
:1008C0005B6B98470F4B5B6903F48043002B08D0A8
:1008D0000C4B5B690B4A43F4804353610A4B9B6B9F
:1008E0009847084B5B6903F40043002B08D0054B85
:1008F0005B69044A43F400435361034BDB6B984745
:1009000000BF80BD000401402400002080B400AF7F
:1009100000BFBD4680BC704780B586B000AF0023E5
:100920007B60374B7B617B695B6803F400733B61E1
:100930007B695B6803F48063FB607B695B6903F040
:100940001003BB603B69002B0AD0BB68002B07D0AB
:100950007B691A687B691A600021786900F052F897
:100960007B695B6903F00203BB603B69002B12D01B
:10097000BB68002B0FD07B699B6903F00103002B40
:1009800009D17B695B697B607B699B697B60022124
:10099000786900F037F87B695B6903F08003BB601E
:1009A0003B69002B0FD0FB68002B0CD0BB68002BE1
:1009B00009D07B699B6903F00103002B03D103215C
:1009C000786900F01FF87B695B6903F04003BB6046
:1009D0003B69002B0FD0FB68002B0CD0BB68002BB1
:1009E00009D07B699B6903F00103002B03D104212B
:1009F000786900F007F800BF1837BD4680BD00BF1A
:100A00000054004080B584B000AF78600B46FB70A6
:100A10007B68324A934214BF01230023DBB2FB738D
:100A2000FB78042B56D801A252F823F0470A00089D
:100A3000410A00086B0A0008830A0008A70A000898
:100A40007B689B6946E07B689B6903F00403002B8D
:100A50003BD0FA7B22491346DB0013449B000B4436
:100A600020331B68002098472FE0FA7B1C4913466F
:100A7000DB0013449B000B4420331B680220984783
:100A800028E07B689B6903F00403002B1FD0FA7BEE
:100A900013491346DB0013449B000B4420331B68AF
:100AA0000320984713E07B689B6903F00403002B45
:100AB0000FD1FA7B0A491346DB0013449B000B4419
:100AC00020331B680420984703E000BF02E000BF0A
:100AD00000E000BF00BF1037BD4680BD005400409D
:100AE0006000002080B400AF00BFBD4680BC7047EE
:100AF00080B400AF00BFBD4680BC704780B582B0F7
:100B000000AF134B9B685B0803F00103DAB23B793B
:100B100062F300033B710E4B9B6803F00103DAB2F2
:100B20003B7962F341033B71094B9B681B0903F05E
:100B30000103DAB23B7962F382033B71054B1B6818
:100B40005B693879984700BF0837BD4680BD00BF54
:100B500000300140A800002080B582B000AF134BE8
:100B60009B685B0803F00103DAB23B7962F3000390
:100B70003B710E4B9B6803F00103DAB23B7962F3E1
:100B800041033B71094B9B681B0903F00103DAB277
:100B90003B7962F382033B71054B5B685B69387993
:100BA000984700BF0837BD4680BD00BF00380040F1
:100BB000A800002080B500AF024B1B681B69984756
:100BC00000BF80BDB000002080B500AF024B1B68A5
:100BD0001B69984700BF80BDB000002080B500AF02
:100BE000024B1B681B69984700BF80BDB000002006
:100BF00070B500260C4D0D4C641BA410A64209D103
:100C000000F01AF800260A4D0A4C641BA410A642F4
:100C100005D170BD55F8043B98470136EEE755F80D
:100C2000043B98470136F2E7580C0008580C0008BE
:100C3000580C00085C0C0008F8B500BFF8BC08BCF4
:100C40009E467047F8B500BFF8BC08BC9E4670478A
:080C50001C0000201C00002024
:040C5800550100083A
:040C5C00310100085A
:040000050800037973
:00000001FF
